
const ethers = require('ethers')

const ex = [
['ParentHash','0x1e77d8f1267348b516ebc4f4da1e2aa59f85f0cbd853949500ffac8bfc38ba14'],
['UncleHash','0x1dcc4de8dec75d7aab85b567b6ccd41ad312451b948a7413f0a142fd40d49347'],
['Coinbase','0x2a65Aca4D5fC5B5C859090a6c34d164135398226'],
['Root','0x0b5e4386680f43c224c5c037efc0b645c8e1c3f6b30da0eec07272b4e6f8cd89'],
['TxHash','0x56e81f171bcc55a6ff8345e692c0f86e5b48e01b996cadc001622fb5e363b421'],
['ReceiptHash','0x56e81f171bcc55a6ff8345e692c0f86e5b48e01b996cadc001622fb5e363b421'],
['Bloom','0x00000000000000000000000000000000000000000000000000000000000000000000000000000000000000000000000000000000000000000000000000000000000000000000000000000000000000000000000000000000000000000000000000000000000000000000000000000000000000000000000000000000000000000000000000000000000000000000000000000000000000000000000000000000000000000000000000000000000000000000000000000000000000000000000000000000000000000000000000000000000000000000000000000000000000000000000000000000000000000000000000000000000000000000000000000000'],
['Difficulty',ethers.utils.hexlify(6022643743806)],
['Number',ethers.utils.hexlify(400000)],
['GasLimit',ethers.utils.hexlify(3141592)],
['GasUsed', '0x' ],//(0).toString(16)],
['Time', ethers.utils.hexlify(1445130204)],
['Extra','0xd583010202844765746885676f312e35856c696e7578'],
['MixDigest','0x3fbea7af642a4e20cd93a945a1f5e23bd72fc5261153e09102cf718980aeff38'],
['Nonce','0x6af23caae95692ef'],
//['BaseFee',"0x"]
]

console.log(

	ethers,
	ethers.utils.RLP.encode(ex.map(v => v[1])),
	ethers.utils.keccak256(	ethers.utils.RLP.encode(ex.map(v => v[1]))),
'0xf90213a01e77d8f1267348b516ebc4f4da1e2aa59f85f0cbd853949500ffac8bfc38ba14a01dcc4de8dec75d7aab85b567b6ccd41ad312451b948a7413f0a142fd40d49347942a6',

//	ethers.utils.([b32, b32, add, b32, b32, b32, 'bytes', u256, u256, u256, u256, u256, 'bytes', b32, u256, u256], ex.map(v => v[1])),
)

//0xffffffffffffffff

/**

Calling the function:
selector is 4 bytes strict, then length of length of payload in a word

RLIST 0xf9 -> list of length encoded in 2 bytes: 0213 = 531 bytes
PHASH a01e77d8f1267348b516ebc4f4da1e2aa59f85f0cbd853949500ffac8bfc38ba14
UHASH a01dcc4de8dec75d7aab85b567b6ccd41ad312451b948a7413f0a142fd40d49347
CBASE 942a65aca4d5fc5b5c859090a6c34d164135398226
SROOT a00b5e4386680f43c224c5c037efc0b645c8e1c3f6b30da0eec07272b4e6f8cd89
TROOT a056e81f171bcc55a6ff8345e692c0f86e5b48e01b996cadc001622fb5e363b421
RROOT a056e81f171bcc55a6ff8345e692c0f86e5b48e01b996cadc001622fb5e363b421
BLOOM b9010000000000000000000000000000000000000000000000000000000000000000000000000000000000000000000000000000000000000000000000000000000000000000000000000000000000000000000000000000000000000000000000000000000000000000000000000000000000000000000000000000000000000000000000000000000000000000000000000000000000000000000000000000000000000000000000000000000000000000000000000000000000000000000000000000000000000000000000000000000000000000000000000000000000000000000000000000000000000000000000000000000000000000000000000000000000
DIFFI 86057a418a7c3e
NUMBR 83061a80
LIMIT 832fefd8
GUSED 80
STAMP 845622efdc
EXTRA 96d583010202844765746885676f312e35856c696e7578
MHASH a03fbea7af642a4e20cd93a945a1f5e23bd72fc5261153e09102cf718980aeff38
NONCE 886af23caae95692ef

0x2f570a23
0000000000000000000000000000000000000000000000000000000000000020
0000000000000000000000000000000000000000000000000000000000000216
f90213a01e77d8f1267348b516ebc4f4da1e2aa59f85f0cbd853949500ffac8bfc38ba14a01dcc4de8dec75d7aab85b567b6ccd41ad312451b948a7413f0a142fd40d49347942a65aca4d5fc5b5c859090a6c34d164135398226a00b5e4386680f43c224c5c037efc0b645c8e1c3f6b30da0eec07272b4e6f8cd89a056e81f171bcc55a6ff8345e692c0f86e5b48e01b996cadc001622fb5e363b421a056e81f171bcc55a6ff8345e692c0f86e5b48e01b996cadc001622fb5e363b421b901000000000000000000000000000000000000000000000000000000000000000000000000000000000000000000000000000000000000000000000000000000000000000000000000000000000000000000000000000000000000000000000000000000000000000000000000000000000000000000000000000000000000000000000000000000000000000000000000000000000000000000000000000000000000000000000000000000000000000000000000000000000000000000000000000000000000000000000000000000000000000000000000000000000000000000000000000000000000000000000000000000000000000000000000000000000086057a418a7c3e83061a80832fefd880845622efdc96d583010202844765746885676f312e35856c696e7578a03fbea7af642a4e20cd93a945a1f5e23bd72fc5261153e09102cf718980aeff38886af23caae95692ef
00000000000000000000
*/
